{
  "contractName": "SolnSquareVerifier",
  "abi": [
    {
      "inputs": [
        {
          "internalType": "string",
          "name": "name",
          "type": "string"
        },
        {
          "internalType": "string",
          "name": "symbol",
          "type": "string"
        }
      ],
      "payable": false,
      "stateMutability": "nonpayable",
      "type": "constructor"
    },
    {
      "anonymous": false,
      "inputs": [
        {
          "indexed": true,
          "internalType": "address",
          "name": "owner",
          "type": "address"
        },
        {
          "indexed": true,
          "internalType": "address",
          "name": "approved",
          "type": "address"
        },
        {
          "indexed": true,
          "internalType": "uint256",
          "name": "tokenId",
          "type": "uint256"
        }
      ],
      "name": "Approval",
      "type": "event"
    },
    {
      "anonymous": false,
      "inputs": [
        {
          "indexed": true,
          "internalType": "address",
          "name": "owner",
          "type": "address"
        },
        {
          "indexed": true,
          "internalType": "address",
          "name": "operator",
          "type": "address"
        },
        {
          "indexed": false,
          "internalType": "bool",
          "name": "approved",
          "type": "bool"
        }
      ],
      "name": "ApprovalForAll",
      "type": "event"
    },
    {
      "anonymous": false,
      "inputs": [
        {
          "indexed": false,
          "internalType": "address",
          "name": "newOwner",
          "type": "address"
        }
      ],
      "name": "OwnerChanged",
      "type": "event"
    },
    {
      "anonymous": false,
      "inputs": [
        {
          "indexed": false,
          "internalType": "address",
          "name": "addr",
          "type": "address"
        }
      ],
      "name": "Paused",
      "type": "event"
    },
    {
      "anonymous": false,
      "inputs": [
        {
          "indexed": false,
          "internalType": "uint256",
          "name": "tokenId",
          "type": "uint256"
        },
        {
          "indexed": true,
          "internalType": "address",
          "name": "owner",
          "type": "address"
        }
      ],
      "name": "SolutionAdded",
      "type": "event"
    },
    {
      "anonymous": false,
      "inputs": [
        {
          "indexed": true,
          "internalType": "address",
          "name": "from",
          "type": "address"
        },
        {
          "indexed": true,
          "internalType": "address",
          "name": "to",
          "type": "address"
        },
        {
          "indexed": true,
          "internalType": "uint256",
          "name": "tokenId",
          "type": "uint256"
        }
      ],
      "name": "Transfer",
      "type": "event"
    },
    {
      "anonymous": false,
      "inputs": [
        {
          "indexed": false,
          "internalType": "address",
          "name": "addr",
          "type": "address"
        }
      ],
      "name": "Unpaused",
      "type": "event"
    },
    {
      "constant": false,
      "inputs": [
        {
          "internalType": "bytes32",
          "name": "_myid",
          "type": "bytes32"
        },
        {
          "internalType": "string",
          "name": "_result",
          "type": "string"
        }
      ],
      "name": "__callback",
      "outputs": [],
      "payable": false,
      "stateMutability": "nonpayable",
      "type": "function"
    },
    {
      "constant": false,
      "inputs": [
        {
          "internalType": "bytes32",
          "name": "_myid",
          "type": "bytes32"
        },
        {
          "internalType": "string",
          "name": "_result",
          "type": "string"
        },
        {
          "internalType": "bytes",
          "name": "_proof",
          "type": "bytes"
        }
      ],
      "name": "__callback",
      "outputs": [],
      "payable": false,
      "stateMutability": "nonpayable",
      "type": "function"
    },
    {
      "constant": false,
      "inputs": [
        {
          "internalType": "address",
          "name": "to",
          "type": "address"
        },
        {
          "internalType": "uint256",
          "name": "tokenId",
          "type": "uint256"
        }
      ],
      "name": "approve",
      "outputs": [],
      "payable": false,
      "stateMutability": "nonpayable",
      "type": "function"
    },
    {
      "constant": true,
      "inputs": [
        {
          "internalType": "address",
          "name": "owner",
          "type": "address"
        }
      ],
      "name": "balanceOf",
      "outputs": [
        {
          "internalType": "uint256",
          "name": "",
          "type": "uint256"
        }
      ],
      "payable": false,
      "stateMutability": "view",
      "type": "function"
    },
    {
      "constant": true,
      "inputs": [],
      "name": "baseTokenURI",
      "outputs": [
        {
          "internalType": "string",
          "name": "",
          "type": "string"
        }
      ],
      "payable": false,
      "stateMutability": "view",
      "type": "function"
    },
    {
      "constant": true,
      "inputs": [
        {
          "internalType": "uint256",
          "name": "tokenId",
          "type": "uint256"
        }
      ],
      "name": "getApproved",
      "outputs": [
        {
          "internalType": "address",
          "name": "",
          "type": "address"
        }
      ],
      "payable": false,
      "stateMutability": "view",
      "type": "function"
    },
    {
      "constant": true,
      "inputs": [
        {
          "internalType": "address",
          "name": "owner",
          "type": "address"
        },
        {
          "internalType": "address",
          "name": "operator",
          "type": "address"
        }
      ],
      "name": "isApprovedForAll",
      "outputs": [
        {
          "internalType": "bool",
          "name": "",
          "type": "bool"
        }
      ],
      "payable": false,
      "stateMutability": "view",
      "type": "function"
    },
    {
      "constant": true,
      "inputs": [],
      "name": "name",
      "outputs": [
        {
          "internalType": "string",
          "name": "",
          "type": "string"
        }
      ],
      "payable": false,
      "stateMutability": "view",
      "type": "function"
    },
    {
      "constant": true,
      "inputs": [
        {
          "internalType": "uint256",
          "name": "tokenId",
          "type": "uint256"
        }
      ],
      "name": "ownerOf",
      "outputs": [
        {
          "internalType": "address",
          "name": "",
          "type": "address"
        }
      ],
      "payable": false,
      "stateMutability": "view",
      "type": "function"
    },
    {
      "constant": false,
      "inputs": [
        {
          "internalType": "address",
          "name": "from",
          "type": "address"
        },
        {
          "internalType": "address",
          "name": "to",
          "type": "address"
        },
        {
          "internalType": "uint256",
          "name": "tokenId",
          "type": "uint256"
        }
      ],
      "name": "safeTransferFrom",
      "outputs": [],
      "payable": false,
      "stateMutability": "nonpayable",
      "type": "function"
    },
    {
      "constant": false,
      "inputs": [
        {
          "internalType": "address",
          "name": "from",
          "type": "address"
        },
        {
          "internalType": "address",
          "name": "to",
          "type": "address"
        },
        {
          "internalType": "uint256",
          "name": "tokenId",
          "type": "uint256"
        },
        {
          "internalType": "bytes",
          "name": "_data",
          "type": "bytes"
        }
      ],
      "name": "safeTransferFrom",
      "outputs": [],
      "payable": false,
      "stateMutability": "nonpayable",
      "type": "function"
    },
    {
      "constant": false,
      "inputs": [
        {
          "internalType": "address",
          "name": "to",
          "type": "address"
        },
        {
          "internalType": "bool",
          "name": "approved",
          "type": "bool"
        }
      ],
      "name": "setApprovalForAll",
      "outputs": [],
      "payable": false,
      "stateMutability": "nonpayable",
      "type": "function"
    },
    {
      "constant": false,
      "inputs": [
        {
          "internalType": "bool",
          "name": "paused",
          "type": "bool"
        }
      ],
      "name": "setPaused",
      "outputs": [],
      "payable": false,
      "stateMutability": "nonpayable",
      "type": "function"
    },
    {
      "constant": true,
      "inputs": [
        {
          "internalType": "bytes4",
          "name": "interfaceId",
          "type": "bytes4"
        }
      ],
      "name": "supportsInterface",
      "outputs": [
        {
          "internalType": "bool",
          "name": "",
          "type": "bool"
        }
      ],
      "payable": false,
      "stateMutability": "view",
      "type": "function"
    },
    {
      "constant": true,
      "inputs": [],
      "name": "symbol",
      "outputs": [
        {
          "internalType": "string",
          "name": "",
          "type": "string"
        }
      ],
      "payable": false,
      "stateMutability": "view",
      "type": "function"
    },
    {
      "constant": true,
      "inputs": [
        {
          "internalType": "uint256",
          "name": "index",
          "type": "uint256"
        }
      ],
      "name": "tokenByIndex",
      "outputs": [
        {
          "internalType": "uint256",
          "name": "",
          "type": "uint256"
        }
      ],
      "payable": false,
      "stateMutability": "view",
      "type": "function"
    },
    {
      "constant": true,
      "inputs": [
        {
          "internalType": "address",
          "name": "owner",
          "type": "address"
        },
        {
          "internalType": "uint256",
          "name": "index",
          "type": "uint256"
        }
      ],
      "name": "tokenOfOwnerByIndex",
      "outputs": [
        {
          "internalType": "uint256",
          "name": "",
          "type": "uint256"
        }
      ],
      "payable": false,
      "stateMutability": "view",
      "type": "function"
    },
    {
      "constant": true,
      "inputs": [
        {
          "internalType": "uint256",
          "name": "tokenId",
          "type": "uint256"
        }
      ],
      "name": "tokenURI",
      "outputs": [
        {
          "internalType": "string",
          "name": "",
          "type": "string"
        }
      ],
      "payable": false,
      "stateMutability": "view",
      "type": "function"
    },
    {
      "constant": true,
      "inputs": [],
      "name": "totalSupply",
      "outputs": [
        {
          "internalType": "uint256",
          "name": "",
          "type": "uint256"
        }
      ],
      "payable": false,
      "stateMutability": "view",
      "type": "function"
    },
    {
      "constant": false,
      "inputs": [
        {
          "internalType": "address",
          "name": "from",
          "type": "address"
        },
        {
          "internalType": "address",
          "name": "to",
          "type": "address"
        },
        {
          "internalType": "uint256",
          "name": "tokenId",
          "type": "uint256"
        }
      ],
      "name": "transferFrom",
      "outputs": [],
      "payable": false,
      "stateMutability": "nonpayable",
      "type": "function"
    },
    {
      "constant": false,
      "inputs": [
        {
          "internalType": "address",
          "name": "newOwner",
          "type": "address"
        }
      ],
      "name": "transferOwnership",
      "outputs": [],
      "payable": false,
      "stateMutability": "nonpayable",
      "type": "function"
    },
    {
      "constant": false,
      "inputs": [
        {
          "internalType": "address",
          "name": "to",
          "type": "address"
        },
        {
          "internalType": "uint256",
          "name": "tokenId",
          "type": "uint256"
        }
      ],
      "name": "mint",
      "outputs": [
        {
          "internalType": "bool",
          "name": "",
          "type": "bool"
        }
      ],
      "payable": false,
      "stateMutability": "nonpayable",
      "type": "function"
    },
    {
      "constant": false,
      "inputs": [
        {
          "components": [
            {
              "components": [
                {
                  "internalType": "uint256",
                  "name": "X",
                  "type": "uint256"
                },
                {
                  "internalType": "uint256",
                  "name": "Y",
                  "type": "uint256"
                }
              ],
              "internalType": "struct Pairing.G1Point",
              "name": "a",
              "type": "tuple"
            },
            {
              "components": [
                {
                  "internalType": "uint256[2]",
                  "name": "X",
                  "type": "uint256[2]"
                },
                {
                  "internalType": "uint256[2]",
                  "name": "Y",
                  "type": "uint256[2]"
                }
              ],
              "internalType": "struct Pairing.G2Point",
              "name": "b",
              "type": "tuple"
            },
            {
              "components": [
                {
                  "internalType": "uint256",
                  "name": "X",
                  "type": "uint256"
                },
                {
                  "internalType": "uint256",
                  "name": "Y",
                  "type": "uint256"
                }
              ],
              "internalType": "struct Pairing.G1Point",
              "name": "c",
              "type": "tuple"
            }
          ],
          "internalType": "struct SquareVerifier.Proof",
          "name": "proof",
          "type": "tuple"
        },
        {
          "internalType": "uint256[2]",
          "name": "inputs",
          "type": "uint256[2]"
        },
        {
          "internalType": "address",
          "name": "to",
          "type": "address"
        },
        {
          "internalType": "uint256",
          "name": "tokenId",
          "type": "uint256"
        }
      ],
      "name": "mint",
      "outputs": [
        {
          "internalType": "bool",
          "name": "",
          "type": "bool"
        }
      ],
      "payable": false,
      "stateMutability": "nonpayable",
      "type": "function"
    },
    {
      "constant": false,
      "inputs": [
        {
          "internalType": "address",
          "name": "_SquareVerifier",
          "type": "address"
        }
      ],
      "name": "setSquareVerifierContract",
      "outputs": [],
      "payable": false,
      "stateMutability": "nonpayable",
      "type": "function"
    }
  ],
  "bytecode": "0x60806040523480156200001157600080fd5b5060405162003fe038038062003fe083398181016040526200003791908101906200036c565b818181816040518060600160405280603f815260200162003fa1603f9139336000806101000a81548173ffffffffffffffffffffffffffffffffffffffff021916908373ffffffffffffffffffffffffffffffffffffffff1602179055507fa2ea9883a321a3e97b8266c2b078bfeec6d50c711ed71f874a90d500ae2eaf366000809054906101000a900473ffffffffffffffffffffffffffffffffffffffff16604051620000e79190620003f0565b60405180910390a160008060146101000a81548160ff021916908315150217905550620001216301ffc9a760e01b620001c160201b60201c565b620001396380ac58cd60e01b620001c160201b60201c565b6200015163780e9d6360e01b620001c160201b60201c565b62000169635b5e139f60e01b620001c160201b60201c565b82600f90805190602001906200018192919062000261565b5081601090805190602001906200019a92919062000261565b508060119080519060200190620001b392919062000261565b5050505050505050620004d2565b63ffffffff60e01b817bffffffffffffffffffffffffffffffffffffffffffffffffffffffff19161415620001f557600080fd5b6001806000837bffffffffffffffffffffffffffffffffffffffffffffffffffffffff19167bffffffffffffffffffffffffffffffffffffffffffffffffffffffff1916815260200190815260200160002060006101000a81548160ff02191690831515021790555050565b828054600181600116156101000203166002900490600052602060002090601f016020900481019282601f10620002a457805160ff1916838001178555620002d5565b82800160010185558215620002d5579182015b82811115620002d4578251825591602001919060010190620002b7565b5b509050620002e49190620002e8565b5090565b6200030d91905b8082111562000309576000816000905550600101620002ef565b5090565b90565b600082601f8301126200032257600080fd5b81516200033962000333826200043b565b6200040d565b915080825260208301602083018583830111156200035657600080fd5b620003638382846200049c565b50505092915050565b600080604083850312156200038057600080fd5b600083015167ffffffffffffffff8111156200039b57600080fd5b620003a98582860162000310565b925050602083015167ffffffffffffffff811115620003c757600080fd5b620003d58582860162000310565b9150509250929050565b620003ea8162000468565b82525050565b6000602082019050620004076000830184620003df565b92915050565b6000604051905081810181811067ffffffffffffffff821117156200043157600080fd5b8060405250919050565b600067ffffffffffffffff8211156200045357600080fd5b601f19601f8301169050602081019050919050565b600062000475826200047c565b9050919050565b600073ffffffffffffffffffffffffffffffffffffffff82169050919050565b60005b83811015620004bc5780820151818401526020810190506200049f565b83811115620004cc576000848401525b50505050565b613abf80620004e26000396000f3fe608060405234801561001057600080fd5b50600436106101585760003560e01c80634f6ccce7116100c3578063b88d4fde1161007c578063b88d4fde146103fb578063c87b56dd14610417578063d547cfb714610447578063e985e9c514610465578063ecef489414610495578063f2fde38b146104b157610158565b80634f6ccce7146103015780635abee223146103315780636352211e1461036157806370a082311461039157806395d89b41146103c1578063a22cb465146103df57610158565b806323b872dd1161011557806323b872dd1461023157806327dc297e1461024d5780632f745c591461026957806338bbfa501461029957806340c10f19146102b557806342842e0e146102e557610158565b806301ffc9a71461015d57806306fdde031461018d578063081812fc146101ab578063095ea7b3146101db57806316c38b3c146101f757806318160ddd14610213575b600080fd5b61017760048036036101729190810190612e0f565b6104cd565b60405161018491906135ba565b60405180910390f35b610195610535565b6040516101a291906135d5565b60405180910390f35b6101c560048036036101c09190810190612ec8565b6105d7565b6040516101d29190613538565b60405180910390f35b6101f560048036036101f09190810190612cae565b610614565b005b610211600480360361020c9190810190612cea565b6107d3565b005b61021b610908565b6040516102289190613782565b60405180910390f35b61024b60048036036102469190810190612ba8565b610915565b005b61026760048036036102629190810190612d3c565b610938565b005b610283600480360361027e9190810190612cae565b61097b565b6040516102909190613782565b60405180910390f35b6102b360048036036102ae9190810190612d90565b6109ee565b005b6102cf60048036036102ca9190810190612cae565b6109f3565b6040516102dc91906135ba565b60405180910390f35b6102ff60048036036102fa9190810190612ba8565b610aa1565b005b61031b60048036036103169190810190612ec8565b610ac1565b6040516103289190613782565b60405180910390f35b61034b60048036036103469190810190612e61565b610af5565b60405161035891906135ba565b60405180910390f35b61037b60048036036103769190810190612ec8565b610d46565b6040516103889190613538565b60405180910390f35b6103ab60048036036103a69190810190612b43565b610d83565b6040516103b89190613782565b60405180910390f35b6103c9610dd3565b6040516103d691906135d5565b60405180910390f35b6103f960048036036103f49190810190612c72565b610e75565b005b61041560048036036104109190810190612bf7565b610fab565b005b610431600480360361042c9190810190612ec8565b610fd1565b60405161043e91906135d5565b60405180910390f35b61044f611098565b60405161045c91906135d5565b60405180910390f35b61047f600480360361047a9190810190612b6c565b61113a565b60405161048c91906135ba565b60405180910390f35b6104af60048036036104aa9190810190612b43565b6111ce565b005b6104cb60048036036104c69190810190612b43565b6112a7565b005b600060016000837bffffffffffffffffffffffffffffffffffffffffffffffffffffffff19167bffffffffffffffffffffffffffffffffffffffffffffffffffffffff1916815260200190815260200160002060009054906101000a900460ff169050919050565b6060600f8054600181600116156101000203166002900480601f0160208091040260200160405190810160405280929190818152602001828054600181600116156101000203166002900480156105cd5780601f106105a2576101008083540402835291602001916105cd565b820191906000526020600020905b8154815290600101906020018083116105b057829003601f168201915b5050505050905090565b60006003600083815260200190815260200160002060009054906101000a900473ffffffffffffffffffffffffffffffffffffffff169050919050565b61061d81610d46565b73ffffffffffffffffffffffffffffffffffffffff168273ffffffffffffffffffffffffffffffffffffffff16141561068b576040517f08c379a0000000000000000000000000000000000000000000000000000000008152600401610682906136b7565b60405180910390fd5b61069481610d46565b73ffffffffffffffffffffffffffffffffffffffff163373ffffffffffffffffffffffffffffffffffffffff1614806106db57506106da6106d482610d46565b3361113a565b5b61071a576040517f08c379a000000000000000000000000000000000000000000000000000000000815260040161071190613737565b60405180910390fd5b816003600083815260200190815260200160002060006101000a81548173ffffffffffffffffffffffffffffffffffffffff021916908373ffffffffffffffffffffffffffffffffffffffff160217905550808273ffffffffffffffffffffffffffffffffffffffff1661078d83610d46565b73ffffffffffffffffffffffffffffffffffffffff167f8c5be1e5ebec7d5bd14f71427d1e84f3dd0314c0f7b2291e5b200ac8c7c3b92560405160405180910390a45050565b6000809054906101000a900473ffffffffffffffffffffffffffffffffffffffff1673ffffffffffffffffffffffffffffffffffffffff163373ffffffffffffffffffffffffffffffffffffffff1614610862576040517f08c379a000000000000000000000000000000000000000000000000000000000815260040161085990613637565b60405180910390fd5b80600060146101000a81548160ff021916908315150217905550600060149054906101000a900460ff16156108cd577f62e78cea01bee320cd4e420270b5ea74000d11b0c9f74754ebdbfc544b05a258336040516108c09190613553565b60405180910390a1610905565b7f5db9ee0a495bf2e6ff9c91a7834c1ba4fdd244a5e8aa4e537bd38aeae4b073aa336040516108fc9190613553565b60405180910390a15b50565b6000600880549050905090565b61091f338261148e565b61092857600080fd5b610933838383611523565b505050565b610977828260006040519080825280601f01601f1916602001820160405280156109715781602001600182028038833980820191505090505b506109ee565b5050565b600061098683610d83565b821061099157600080fd5b600660008473ffffffffffffffffffffffffffffffffffffffff1673ffffffffffffffffffffffffffffffffffffffff16815260200190815260200160002082815481106109db57fe5b9060005260206000200154905092915050565b505050565b60008060009054906101000a900473ffffffffffffffffffffffffffffffffffffffff1673ffffffffffffffffffffffffffffffffffffffff163373ffffffffffffffffffffffffffffffffffffffff1614610a84576040517f08c379a0000000000000000000000000000000000000000000000000000000008152600401610a7b90613637565b60405180910390fd5b610a8e8383611547565b610a9782611568565b6001905092915050565b610abc83838360405180602001604052806000815250610fab565b505050565b6000610acb610908565b8210610ad657600080fd5b60088281548110610ae357fe5b90600052602060002001549050919050565b60008484600073ffffffffffffffffffffffffffffffffffffffff1660156000610b1f8585611686565b815260200190815260200160002060010160009054906101000a900473ffffffffffffffffffffffffffffffffffffffff1673ffffffffffffffffffffffffffffffffffffffff1614610ba7576040517f08c379a0000000000000000000000000000000000000000000000000000000008152600401610b9e906136f7565b60405180910390fd5b600073ffffffffffffffffffffffffffffffffffffffff16601360009054906101000a900473ffffffffffffffffffffffffffffffffffffffff1673ffffffffffffffffffffffffffffffffffffffff161415610c39576040517f08c379a0000000000000000000000000000000000000000000000000000000008152600401610c3090613717565b60405180910390fd5b601360009054906101000a900473ffffffffffffffffffffffffffffffffffffffff1673ffffffffffffffffffffffffffffffffffffffff166343cd76fc88886040518363ffffffff1660e01b8152600401610c96929190613757565b60206040518083038186803b158015610cae57600080fd5b505afa158015610cc2573d6000803e3d6000fd5b505050506040513d601f19601f82011682018060405250610ce69190810190612d13565b610d25576040517f08c379a0000000000000000000000000000000000000000000000000000000008152600401610d1c90613697565b60405180910390fd5b610d2f85856109f3565b50610d3c87878787611772565b5050949350505050565b60006002600083815260200190815260200160002060009054906101000a900473ffffffffffffffffffffffffffffffffffffffff169050919050565b6000610dcc600460008473ffffffffffffffffffffffffffffffffffffffff1673ffffffffffffffffffffffffffffffffffffffff1681526020019081526020016000206118f5565b9050919050565b606060108054600181600116156101000203166002900480601f016020809104026020016040519081016040528092919081815260200182805460018160011615610100020316600290048015610e6b5780601f10610e4057610100808354040283529160200191610e6b565b820191906000526020600020905b815481529060010190602001808311610e4e57829003601f168201915b5050505050905090565b3373ffffffffffffffffffffffffffffffffffffffff168273ffffffffffffffffffffffffffffffffffffffff161415610eae57600080fd5b80600560003373ffffffffffffffffffffffffffffffffffffffff1673ffffffffffffffffffffffffffffffffffffffff16815260200190815260200160002060008473ffffffffffffffffffffffffffffffffffffffff1673ffffffffffffffffffffffffffffffffffffffff16815260200190815260200160002060006101000a81548160ff0219169083151502179055508173ffffffffffffffffffffffffffffffffffffffff163373ffffffffffffffffffffffffffffffffffffffff167f17307eab39ab6107e8899845ad3d59bd9653f200f220920489ca2b5937696c3183604051610f9f91906135ba565b60405180910390a35050565b610fb6848484610915565b610fc284848484611903565b610fcb57600080fd5b50505050565b6060610fdc82611a1a565b610fe557600080fd5b601260008381526020019081526020016000208054600181600116156101000203166002900480601f01602080910402602001604051908101604052809291908181526020018280546001816001161561010002031660029004801561108c5780601f106110615761010080835404028352916020019161108c565b820191906000526020600020905b81548152906001019060200180831161106f57829003601f168201915b50505050509050919050565b606060118054600181600116156101000203166002900480601f0160208091040260200160405190810160405280929190818152602001828054600181600116156101000203166002900480156111305780601f1061110557610100808354040283529160200191611130565b820191906000526020600020905b81548152906001019060200180831161111357829003601f168201915b5050505050905090565b6000600560008473ffffffffffffffffffffffffffffffffffffffff1673ffffffffffffffffffffffffffffffffffffffff16815260200190815260200160002060008373ffffffffffffffffffffffffffffffffffffffff1673ffffffffffffffffffffffffffffffffffffffff16815260200190815260200160002060009054906101000a900460ff16905092915050565b6000809054906101000a900473ffffffffffffffffffffffffffffffffffffffff1673ffffffffffffffffffffffffffffffffffffffff163373ffffffffffffffffffffffffffffffffffffffff161461125d576040517f08c379a000000000000000000000000000000000000000000000000000000000815260040161125490613637565b60405180910390fd5b600081905080601360006101000a81548173ffffffffffffffffffffffffffffffffffffffff021916908373ffffffffffffffffffffffffffffffffffffffff1602179055505050565b6000809054906101000a900473ffffffffffffffffffffffffffffffffffffffff1673ffffffffffffffffffffffffffffffffffffffff163373ffffffffffffffffffffffffffffffffffffffff1614611336576040517f08c379a000000000000000000000000000000000000000000000000000000000815260040161132d90613637565b60405180910390fd5b3373ffffffffffffffffffffffffffffffffffffffff163273ffffffffffffffffffffffffffffffffffffffff16146113a4576040517f08c379a000000000000000000000000000000000000000000000000000000000815260040161139b906136d7565b60405180910390fd5b600073ffffffffffffffffffffffffffffffffffffffff168173ffffffffffffffffffffffffffffffffffffffff161415611414576040517f08c379a000000000000000000000000000000000000000000000000000000000815260040161140b90613657565b60405180910390fd5b806000806101000a81548173ffffffffffffffffffffffffffffffffffffffff021916908373ffffffffffffffffffffffffffffffffffffffff1602179055507fa2ea9883a321a3e97b8266c2b078bfeec6d50c711ed71f874a90d500ae2eaf36816040516114839190613538565b60405180910390a150565b60008061149a83610d46565b90508073ffffffffffffffffffffffffffffffffffffffff168473ffffffffffffffffffffffffffffffffffffffff16148061150957508373ffffffffffffffffffffffffffffffffffffffff166114f1846105d7565b73ffffffffffffffffffffffffffffffffffffffff16145b8061151a5750611519818561113a565b5b91505092915050565b61152e838383611a8c565b6115388382611d43565b6115428282611ee1565b505050565b6115518282611fa8565b61155b8282611ee1565b6115648161217e565b5050565b61157181611a1a565b6115b0576040517f08c379a00000000000000000000000000000000000000000000000000000000081526004016115a790613677565b60405180910390fd5b61165c60118054600181600116156101000203166002900480601f0160208091040260200160405190810160405280929190818152602001828054600181600116156101000203166002900480156116495780601f1061161e57610100808354040283529160200191611649565b820191906000526020600020905b81548152906001019060200180831161162c57829003601f168201915b5050505050611657836121ca565b6122f7565b601260008381526020019081526020016000209080519060200190611682929190612726565b5050565b60008260000151600001518360000151602001518460200151600001516000600281106116af57fe5b60200201518560200151602001516000600281106116c957fe5b60200201518660200151600001516001600281106116e357fe5b60200201518760200151602001516001600281106116fd57fe5b60200201518860400151600001518960400151602001518960006002811061172157fe5b60200201518a60016002811061173357fe5b60200201516040516020016117519a99989796959493929190613484565b6040516020818303038152906040528051906020012060001c905092915050565b61177a6127a6565b60405180604001604052808381526020018473ffffffffffffffffffffffffffffffffffffffff168152509050601481908060018154018082558091505090600182039060005260206000209060020201600090919290919091506000820151816000015560208201518160010160006101000a81548173ffffffffffffffffffffffffffffffffffffffff021916908373ffffffffffffffffffffffffffffffffffffffff16021790555050505060006118358686611686565b905081601560008381526020019081526020016000206000820151816000015560208201518160010160006101000a81548173ffffffffffffffffffffffffffffffffffffffff021916908373ffffffffffffffffffffffffffffffffffffffff1602179055509050508373ffffffffffffffffffffffffffffffffffffffff167f078793128cefb19aac38a33f9e5df39f67716907f6d747e8065545699e0b2b8d846040516118e59190613782565b60405180910390a2505050505050565b600081600001549050919050565b60006119248473ffffffffffffffffffffffffffffffffffffffff1661233b565b6119315760019050611a12565b60008473ffffffffffffffffffffffffffffffffffffffff1663150b7a02338887876040518563ffffffff1660e01b8152600401611972949392919061356e565b602060405180830381600087803b15801561198c57600080fd5b505af11580156119a0573d6000803e3d6000fd5b505050506040513d601f19601f820116820180604052506119c49190810190612e38565b905063150b7a0260e01b7bffffffffffffffffffffffffffffffffffffffffffffffffffffffff1916817bffffffffffffffffffffffffffffffffffffffffffffffffffffffff1916149150505b949350505050565b6000806002600084815260200190815260200160002060009054906101000a900473ffffffffffffffffffffffffffffffffffffffff169050600073ffffffffffffffffffffffffffffffffffffffff168173ffffffffffffffffffffffffffffffffffffffff161415915050919050565b6002600082815260200190815260200160002060009054906101000a900473ffffffffffffffffffffffffffffffffffffffff1673ffffffffffffffffffffffffffffffffffffffff168373ffffffffffffffffffffffffffffffffffffffff1614611b2d576040517f08c379a0000000000000000000000000000000000000000000000000000000008152600401611b24906135f7565b60405180910390fd5b600073ffffffffffffffffffffffffffffffffffffffff168273ffffffffffffffffffffffffffffffffffffffff161415611b9d576040517f08c379a0000000000000000000000000000000000000000000000000000000008152600401611b9490613617565b60405180910390fd5b611ba7338261148e565b611bb057600080fd5b60006003600083815260200190815260200160002060006101000a81548173ffffffffffffffffffffffffffffffffffffffff021916908373ffffffffffffffffffffffffffffffffffffffff160217905550816002600083815260200190815260200160002060006101000a81548173ffffffffffffffffffffffffffffffffffffffff021916908373ffffffffffffffffffffffffffffffffffffffff160217905550611c9c600460008573ffffffffffffffffffffffffffffffffffffffff1673ffffffffffffffffffffffffffffffffffffffff168152602001908152602001600020612386565b611ce3600460008473ffffffffffffffffffffffffffffffffffffffff1673ffffffffffffffffffffffffffffffffffffffff1681526020019081526020016000206123a9565b808273ffffffffffffffffffffffffffffffffffffffff168473ffffffffffffffffffffffffffffffffffffffff167fddf252ad1be2c89b69c2b068fc378daa952ba7f163c4a11628f55a4df523b3ef60405160405180910390a4505050565b6000611d9b6001600660008673ffffffffffffffffffffffffffffffffffffffff1673ffffffffffffffffffffffffffffffffffffffff168152602001908152602001600020805490506123bf90919063ffffffff16565b9050600060076000848152602001908152602001600020549050818114611e88576000600660008673ffffffffffffffffffffffffffffffffffffffff1673ffffffffffffffffffffffffffffffffffffffff1681526020019081526020016000208381548110611e0857fe5b9060005260206000200154905080600660008773ffffffffffffffffffffffffffffffffffffffff1673ffffffffffffffffffffffffffffffffffffffff1681526020019081526020016000208381548110611e6057fe5b9060005260206000200181905550816007600083815260200190815260200160002081905550505b600660008573ffffffffffffffffffffffffffffffffffffffff1673ffffffffffffffffffffffffffffffffffffffff168152602001908152602001600020805480919060019003611eda91906127d6565b5050505050565b600660008373ffffffffffffffffffffffffffffffffffffffff1673ffffffffffffffffffffffffffffffffffffffff168152602001908152602001600020805490506007600083815260200190815260200160002081905550600660008373ffffffffffffffffffffffffffffffffffffffff1673ffffffffffffffffffffffffffffffffffffffff1681526020019081526020016000208190806001815401808255809150509060018203906000526020600020016000909192909190915055505050565b3273ffffffffffffffffffffffffffffffffffffffff163373ffffffffffffffffffffffffffffffffffffffff1614611fe057600080fd5b600073ffffffffffffffffffffffffffffffffffffffff163373ffffffffffffffffffffffffffffffffffffffff16141561201a57600080fd5b600073ffffffffffffffffffffffffffffffffffffffff166002600083815260200190815260200160002060009054906101000a900473ffffffffffffffffffffffffffffffffffffffff1673ffffffffffffffffffffffffffffffffffffffff161461208657600080fd5b816002600083815260200190815260200160002060006101000a81548173ffffffffffffffffffffffffffffffffffffffff021916908373ffffffffffffffffffffffffffffffffffffffff16021790555061211f600460008473ffffffffffffffffffffffffffffffffffffffff1673ffffffffffffffffffffffffffffffffffffffff1681526020019081526020016000206123a9565b808273ffffffffffffffffffffffffffffffffffffffff163373ffffffffffffffffffffffffffffffffffffffff167fddf252ad1be2c89b69c2b068fc378daa952ba7f163c4a11628f55a4df523b3ef60405160405180910390a45050565b6008805490506009600083815260200190815260200160002081905550600881908060018154018082558091505090600182039060005260206000200160009091929091909150555050565b60606000821415612212576040518060400160405280600181526020017f300000000000000000000000000000000000000000000000000000000000000081525090506122f2565b600082905060005b6000821461223c578080600101915050600a828161223457fe5b04915061221a565b6060816040519080825280601f01601f1916602001820160405280156122715781602001600182028038833980820191505090505b50905060006001830390505b600086146122ea57600a868161228f57fe5b0660300160f81b828280600190039350815181106122a957fe5b60200101907effffffffffffffffffffffffffffffffffffffffffffffffffffffffffffff1916908160001a905350600a86816122e257fe5b04955061227d565b819450505050505b919050565b60606123338383604051806020016040528060008152506040518060200160405280600081525060405180602001604052806000815250612409565b905092915050565b60008060007fc5d2460186f7233c927e7db2dcc703c0e500b653ca82273b7bfad8045d85a47060001b9050833f915080821415801561237d57506000801b8214155b92505050919050565b61239e600182600001546123bf90919063ffffffff16565b816000018190555050565b6001816000016000828254019250508190555050565b600061240183836040518060400160405280601e81526020017f536166654d6174683a207375627472616374696f6e206f766572666c6f7700008152506126cb565b905092915050565b6060808690506060869050606086905060608690506060869050606081518351855187518951010101016040519080825280601f01601f1916602001820160405280156124655781602001600182028038833980820191505090505b509050606081905060008090506000809050600090505b88518110156124ea5788818151811061249157fe5b602001015160f81c60f81b8383806001019450815181106124ae57fe5b60200101907effffffffffffffffffffffffffffffffffffffffffffffffffffffffffffff1916908160001a905350808060010191505061247c565b600090505b875181101561255d5787818151811061250457fe5b602001015160f81c60f81b83838060010194508151811061252157fe5b60200101907effffffffffffffffffffffffffffffffffffffffffffffffffffffffffffff1916908160001a90535080806001019150506124ef565b600090505b86518110156125d05786818151811061257757fe5b602001015160f81c60f81b83838060010194508151811061259457fe5b60200101907effffffffffffffffffffffffffffffffffffffffffffffffffffffffffffff1916908160001a9053508080600101915050612562565b600090505b8551811015612643578581815181106125ea57fe5b602001015160f81c60f81b83838060010194508151811061260757fe5b60200101907effffffffffffffffffffffffffffffffffffffffffffffffffffffffffffff1916908160001a90535080806001019150506125d5565b600090505b84518110156126b65784818151811061265d57fe5b602001015160f81c60f81b83838060010194508151811061267a57fe5b60200101907effffffffffffffffffffffffffffffffffffffffffffffffffffffffffffff1916908160001a9053508080600101915050612648565b82995050505050505050505095945050505050565b6000838311158290612713576040517f08c379a000000000000000000000000000000000000000000000000000000000815260040161270a91906135d5565b60405180910390fd5b5060008385039050809150509392505050565b828054600181600116156101000203166002900490600052602060002090601f016020900481019282601f1061276757805160ff1916838001178555612795565b82800160010185558215612795579182015b82811115612794578251825591602001919060010190612779565b5b5090506127a29190612802565b5090565b604051806040016040528060008152602001600073ffffffffffffffffffffffffffffffffffffffff1681525090565b8154818355818111156127fd578183600052602060002091820191016127fc9190612802565b5b505050565b61282491905b80821115612820576000816000905550600101612808565b5090565b90565b60008135905061283681613a09565b92915050565b600082601f83011261284d57600080fd5b600261286061285b826137ca565b61379d565b9150818385602084028201111561287657600080fd5b60005b838110156128a6578161288c8882612b2e565b845260208401935060208301925050600181019050612879565b5050505092915050565b600082601f8301126128c157600080fd5b60026128d46128cf826137ec565b61379d565b915081838560208402820111156128ea57600080fd5b60005b8381101561291a57816129008882612b2e565b8452602084019350602083019250506001810190506128ed565b5050505092915050565b60008135905061293381613a20565b92915050565b60008151905061294881613a20565b92915050565b60008135905061295d81613a37565b92915050565b60008135905061297281613a4e565b92915050565b60008151905061298781613a4e565b92915050565b600082601f83011261299e57600080fd5b81356129b16129ac8261380e565b61379d565b915080825260208301602083018583830111156129cd57600080fd5b6129d88382846139ac565b50505092915050565b600082601f8301126129f257600080fd5b8135612a05612a008261383a565b61379d565b91508082526020830160208301858383011115612a2157600080fd5b612a2c8382846139ac565b50505092915050565b600060408284031215612a4757600080fd5b612a51604061379d565b90506000612a6184828501612b2e565b6000830152506020612a7584828501612b2e565b60208301525092915050565b600060808284031215612a9357600080fd5b612a9d604061379d565b90506000612aad8482850161283c565b6000830152506040612ac18482850161283c565b60208301525092915050565b60006101008284031215612ae057600080fd5b612aea606061379d565b90506000612afa84828501612a35565b6000830152506040612b0e84828501612a81565b60208301525060c0612b2284828501612a35565b60408301525092915050565b600081359050612b3d81613a65565b92915050565b600060208284031215612b5557600080fd5b6000612b6384828501612827565b91505092915050565b60008060408385031215612b7f57600080fd5b6000612b8d85828601612827565b9250506020612b9e85828601612827565b9150509250929050565b600080600060608486031215612bbd57600080fd5b6000612bcb86828701612827565b9350506020612bdc86828701612827565b9250506040612bed86828701612b2e565b9150509250925092565b60008060008060808587031215612c0d57600080fd5b6000612c1b87828801612827565b9450506020612c2c87828801612827565b9350506040612c3d87828801612b2e565b925050606085013567ffffffffffffffff811115612c5a57600080fd5b612c668782880161298d565b91505092959194509250565b60008060408385031215612c8557600080fd5b6000612c9385828601612827565b9250506020612ca485828601612924565b9150509250929050565b60008060408385031215612cc157600080fd5b6000612ccf85828601612827565b9250506020612ce085828601612b2e565b9150509250929050565b600060208284031215612cfc57600080fd5b6000612d0a84828501612924565b91505092915050565b600060208284031215612d2557600080fd5b6000612d3384828501612939565b91505092915050565b60008060408385031215612d4f57600080fd5b6000612d5d8582860161294e565b925050602083013567ffffffffffffffff811115612d7a57600080fd5b612d86858286016129e1565b9150509250929050565b600080600060608486031215612da557600080fd5b6000612db38682870161294e565b935050602084013567ffffffffffffffff811115612dd057600080fd5b612ddc868287016129e1565b925050604084013567ffffffffffffffff811115612df957600080fd5b612e058682870161298d565b9150509250925092565b600060208284031215612e2157600080fd5b6000612e2f84828501612963565b91505092915050565b600060208284031215612e4a57600080fd5b6000612e5884828501612978565b91505092915050565b6000806000806101808587031215612e7857600080fd5b6000612e8687828801612acd565b945050610100612e98878288016128b0565b935050610140612eaa87828801612827565b925050610160612ebc87828801612b2e565b91505092959194509250565b600060208284031215612eda57600080fd5b6000612ee884828501612b2e565b91505092915050565b6000612efd838361344f565b60208301905092915050565b612f1281613976565b82525050565b612f21816138f8565b82525050565b612f3081613885565b612f3a81846138cb565b9250612f4582613870565b8060005b83811015612f76578151612f5d8782612ef1565b9650612f68836138b3565b925050600181019050612f49565b505050505050565b612f878161387a565b612f9181846138c0565b9250612f9c82613866565b8060005b83811015612fcd578151612fb48782612ef1565b9650612fbf836138a6565b925050600181019050612fa0565b505050505050565b612fde8161390a565b82525050565b6000612fef82613890565b612ff981856138d6565b93506130098185602086016139bb565b613012816139f8565b840191505092915050565b60006130288261389b565b61303281856138e7565b93506130428185602086016139bb565b61304b816139f8565b840191505092915050565b60006130636030836138e7565b91507f46726f6d2061646472657373206973206e6f7420746865206f776e6572206f6660008301527f2074686520676976656e20746f6b656e000000000000000000000000000000006020830152604082019050919050565b60006130c9600f836138e7565b91507f496e76616c6964206164647265737300000000000000000000000000000000006000830152602082019050919050565b60006131096026836138e7565b91507f4f6e6c7920746865206f776e65722063616e20706572666f726d20746869732060008301527f616374696f6e00000000000000000000000000000000000000000000000000006020830152604082019050919050565b600061316f6020836138e7565b91507f43616e6e6f74207472616e73666572206f776e65727368697020746f203078306000830152602082019050919050565b60006131af6014836138e7565b91507f546f6b656e20646f6573206e6f742065786973740000000000000000000000006000830152602082019050919050565b60006131ef6015836138e7565b91507f536f6c7574696f6e206973206e6f742076616c696400000000000000000000006000830152602082019050919050565b600061322f601b836138e7565b91507f43616e6e6f7420617070726f766520746f20746865206f776e657200000000006000830152602082019050919050565b600061326f6016836138e7565b91507f4d7573742062652061207265616c2061646472657373000000000000000000006000830152602082019050919050565b60006132af6017836138e7565b91507f536f6c7574696f6e20616c7265616479206578697374730000000000000000006000830152602082019050919050565b60006132ef6022836138e7565b91507f566572696669657220636f6e747261637420686173206e6f74206265656e207360008301527f65740000000000000000000000000000000000000000000000000000000000006020830152604082019050919050565b60006133556026836138e7565b91507f4f6e6c7920746865206f776e6572206f72206f70657261746f722063616e206160008301527f7070726f766500000000000000000000000000000000000000000000000000006020830152604082019050919050565b6040820160008201516133c4600085018261344f565b5060208201516133d7602085018261344f565b50505050565b6080820160008201516133f36000850182612f7e565b5060208201516134066040850182612f7e565b50505050565b6101008201600082015161342360008501826133ae565b50602082015161343660408501826133dd565b50604082015161344960c08501826133ae565b50505050565b6134588161396c565b82525050565b6134678161396c565b82525050565b61347e6134798261396c565b6139ee565b82525050565b6000613490828d61346d565b6020820191506134a0828c61346d565b6020820191506134b0828b61346d565b6020820191506134c0828a61346d565b6020820191506134d0828961346d565b6020820191506134e0828861346d565b6020820191506134f0828761346d565b602082019150613500828661346d565b602082019150613510828561346d565b602082019150613520828461346d565b6020820191508190509b9a5050505050505050505050565b600060208201905061354d6000830184612f18565b92915050565b60006020820190506135686000830184612f09565b92915050565b60006080820190506135836000830187612f09565b6135906020830186612f18565b61359d604083018561345e565b81810360608301526135af8184612fe4565b905095945050505050565b60006020820190506135cf6000830184612fd5565b92915050565b600060208201905081810360008301526135ef818461301d565b905092915050565b6000602082019050818103600083015261361081613056565b9050919050565b60006020820190508181036000830152613630816130bc565b9050919050565b60006020820190508181036000830152613650816130fc565b9050919050565b6000602082019050818103600083015261367081613162565b9050919050565b60006020820190508181036000830152613690816131a2565b9050919050565b600060208201905081810360008301526136b0816131e2565b9050919050565b600060208201905081810360008301526136d081613222565b9050919050565b600060208201905081810360008301526136f081613262565b9050919050565b60006020820190508181036000830152613710816132a2565b9050919050565b60006020820190508181036000830152613730816132e2565b9050919050565b6000602082019050818103600083015261375081613348565b9050919050565b60006101408201905061376d600083018561340c565b61377b610100830184612f27565b9392505050565b6000602082019050613797600083018461345e565b92915050565b6000604051905081810181811067ffffffffffffffff821117156137c057600080fd5b8060405250919050565b600067ffffffffffffffff8211156137e157600080fd5b602082029050919050565b600067ffffffffffffffff82111561380357600080fd5b602082029050919050565b600067ffffffffffffffff82111561382557600080fd5b601f19601f8301169050602081019050919050565b600067ffffffffffffffff82111561385157600080fd5b601f19601f8301169050602081019050919050565b6000819050919050565b6000819050919050565b600060029050919050565b600060029050919050565b600081519050919050565b600081519050919050565b6000602082019050919050565b6000602082019050919050565b600081905092915050565b600081905092915050565b600082825260208201905092915050565b600082825260208201905092915050565b60006139038261394c565b9050919050565b60008115159050919050565b6000819050919050565b60007fffffffff0000000000000000000000000000000000000000000000000000000082169050919050565b600073ffffffffffffffffffffffffffffffffffffffff82169050919050565b6000819050919050565b600061398182613988565b9050919050565b60006139938261399a565b9050919050565b60006139a58261394c565b9050919050565b82818337600083830152505050565b60005b838110156139d95780820151818401526020810190506139be565b838111156139e8576000848401525b50505050565b6000819050919050565b6000601f19601f8301169050919050565b613a12816138f8565b8114613a1d57600080fd5b50565b613a298161390a565b8114613a3457600080fd5b50565b613a4081613916565b8114613a4b57600080fd5b50565b613a5781613920565b8114613a6257600080fd5b50565b613a6e8161396c565b8114613a7957600080fd5b5056fea365627a7a72315820ab678053eccec80c771aa11d0c555ef6a98734f0127ac29e4a2abed558349b536c6578706572696d656e74616cf564736f6c6343000510004068747470733a2f2f73332d75732d776573742d322e616d617a6f6e6177732e636f6d2f756461636974792d626c6f636b636861696e2f63617073746f6e652f",
  "source": "pragma solidity >=0.4.21 <0.6.0;\npragma experimental ABIEncoderV2; \n\nimport \"./SquareVerifier.sol\";\nimport \"./ERC721Mintable.sol\";\n\n// TODO define a contract call to the zokrates generated solidity contract <Verifier> or <renamedVerifier>\n\n// TODO define another contract named SolnSquareVerifier that inherits from your ERC721Mintable class\n\ncontract SolnSquareVerifier is ERC721Mintable {\n    SquareVerifier private squareVerifier;\n\n    struct Solution {\n        uint256 tokenId;\n        address owner;\n    }\n\n    Solution[] private solutions;\n\n    mapping(uint256 => Solution) private uniqueSolutions;\n\n    event SolutionAdded(uint256 tokenId, address indexed owner);\n\n    function getSolutionHash(SquareVerifier.Proof memory proof, uint256[2] memory inputs)\n        private\n        returns (uint256)\n    {\n        return uint256(keccak256(abi.encodePacked(\n            proof.a.X, proof.a.Y,\n            proof.b.X[0], proof.b.Y[0], proof.b.X[1], proof.b.Y[1],\n            proof.c.X, proof.c.Y,\n            inputs[0], inputs[1]\n        )));\n    }\n\n    modifier isUniqueSolution(SquareVerifier.Proof memory proof, uint256[2] memory inputs)\n    {\n        require(uniqueSolutions[getSolutionHash(proof, inputs)].owner == address(0), \"Solution already exists\");\n        _;\n    } \n\n    function addSolution(SquareVerifier.Proof memory proof, uint256[2] memory inputs,  address owner, uint256 tokenId) private {\n        Solution memory solution = Solution(tokenId, owner);\n        solutions.push(solution);\n\n        uint256 solutionHash = getSolutionHash(proof, inputs);\n        uniqueSolutions[solutionHash] = solution;\n\n        emit SolutionAdded(tokenId, owner);\n    }\n\n    // TODO Create a function to mint new NFT only after the solution has been verified\n    //  - make sure the solution is unique (has not been used before)\n    //  - make sure you handle metadata as well as tokenSuplly\n\n    function mint(SquareVerifier.Proof memory proof, uint256[2] memory inputs,  address to, uint256 tokenId) \n        public\n        isUniqueSolution(proof, inputs)\n        returns (bool)\n    {\n        require(address(squareVerifier) != address(0), \"Verifier contract has not been set\");\n        require(squareVerifier.verifyTx(proof, inputs), \"Solution is not valid\");\n\n        super.mint(to, tokenId);\n\n        addSolution(proof, inputs, to, tokenId);\n    }\n\n    constructor(string memory name, string memory symbol)\n        ERC721Mintable(name, symbol)\n        public\n    {\n    }\n\n    function setSquareVerifierContract(address _SquareVerifier)\n        public\n        onlyOwner\n    {\n        address addr = address(uint160(_SquareVerifier));\n        squareVerifier = SquareVerifier(addr);\n    }\n}\n\n\n\n\n  \n\n\n\n\n\n\n\n\n\n\n\n\n\n\n\n\n\n\n\n\n\n\n\n\n\n\n",
  "sourcePath": "/Users/paulmusso/Documents/code/autre/udacity/review/eth-contracts/contracts/SolnSquareVerifier.sol",
  "compiler": {
    "name": "solc",
    "version": "0.5.16+commit.9c3226ce.Emscripten.clang"
  },
  "schemaVersion": "3.4.4",
  "updatedAt": "2022-02-09T18:58:05.244Z",
  "devdoc": {
    "methods": {
      "isApprovedForAll(address,address)": {
        "details": "Tells whether an operator is approved by a given owner",
        "params": {
          "operator": "operator address which you want to query the approval of",
          "owner": "owner address which you want to query the approval of"
        },
        "return": "bool whether the given operator is approved by the given owner"
      },
      "setApprovalForAll(address,bool)": {
        "details": "Sets or unsets the approval of a given operator An operator is allowed to transfer all tokens of the sender on their behalf",
        "params": {
          "approved": "representing the status of the approval to be set",
          "to": "operator address to set the approval"
        }
      },
      "supportsInterface(bytes4)": {
        "details": "implement supportsInterface(bytes4) using a lookup table"
      },
      "tokenByIndex(uint256)": {
        "details": "Gets the token ID at a given index of all the tokens in this contract Reverts if the index is greater or equal to the total number of tokens",
        "params": {
          "index": "uint256 representing the index to be accessed of the tokens list"
        },
        "return": "uint256 token ID at the given index of the tokens list"
      },
      "tokenOfOwnerByIndex(address,uint256)": {
        "details": "Gets the token ID at a given index of the tokens list of the requested owner",
        "params": {
          "index": "uint256 representing the index to be accessed of the requested tokens list",
          "owner": "address owning the tokens list to be accessed"
        },
        "return": "uint256 token ID at the given index of the tokens list owned by the requested address"
      },
      "totalSupply()": {
        "details": "Gets the total amount of tokens stored by the contract",
        "return": "uint256 representing the total amount of tokens"
      }
    }
  },
  "userdoc": {
    "methods": {}
  }
}